:020000040800F2
:10000000005000204D3C0008D53B0008DD3B0008B7
:10001000E53B0008ED3B0008F53B00080000000050
:10002000000000000000000000000000FD3B000890
:10003000093C000800000000153C0008213C0008B5
:10004000953C0008953C0008953C0008953C00084C
:10005000953C0008953C0008953C0008953C00083C
:10006000953C0008953C0008953C0008953C00082C
:10007000953C0008953C0008953C0008953C00081C
:10008000953C0008953C0008953C0008953C00080C
:10009000953C0008953C0008953C0008953C0008FC
:1000A000953C0008953C0008953C0008953C0008EC
:1000B0002D3C0008953C0008953C0008953C000844
:1000C000953C0008953C0008953C0008953C0008CC
:1000D000953C0008953C0008953C0008953C0008BC
:1000E000953C0008953C0008953C00080000000085
:1000F0000000000000000000000000000000000000
:0C01000000000000000000005FF808F1A3
:10010C0010B5054C237833B9044B13B10448AFF345
:10011C0000800123237010BD880000200000000027
:10012C007469000808B5034B1BB103490348AFF3CE
:10013C00008008BD000000008C00002074690008DD
:10014C0080B588B000AF786003F0A4FF01237B6119
:10015C000123FB617B68BB6100233B6107F10C024F
:10016C0007F110031146184604F07CF803F0B8FFB1
:10017C0000BF2037BD4680BDB0B582B000AF7860FF
:10018C000B467B8003F086FF7B8800221C461546BD
:10019C0022462B467968012003F00CFF03F0A0FFE8
:1001AC0000BF0837BD46B0BD80B586B000AFF86063
:1001BC00B9601346FB8003F06DFF0023FB820CE05B
:1001CC00FA8AFB68D018FB8ABA6813441B88194654
:1001DC00FFF7D2FFFB8A0233FB82FA8AFB889A4232
:1001EC00EED303F07DFF00BF1837BD4680BD80B451
:1001FC0083B000AF78607B681B78DBB218460C3795
:10020C00BD4680BC704780B483B000AF78607B681B
:10021C001B889BB218460C37BD4680BC704780B417
:10022C0083B000AF78607B68D3E900231046194691
:10023C000C37BD4680BC704780B487B000AFF86007
:10024C00B9601346FB800023FB820CE0FA8AFB6842
:10025C0013441946FB8ABA6813440A78D2B21A704E
:10026C00FB8A0133FB82FA8AFB889A42EED300BFE9
:10027C0000BF1C37BD4680BC704780B584B000AF52
:10028C00F860B96011461A460B46FB711346BB71F8
:10029C00FB683A7E9A70FB680822DA70FB68FA7980
:1002AC001A70FB68BA795A70FB68BA689A60FB6876
:1002BC0004221A71282003F04BFD3021F86800F05D
:1002CC0047F8052003F044FD3021F86800F040F8B1
:1002DC00012003F03DFD3021F86800F039F80A20C8
:1002EC0003F036FD2021F86800F032F80A2003F004
:1002FC002FFD2821F86800F02BF8012003F028FDD1
:10030C000821F86800F024F8012003F021FD0121F8
:10031C00F86800F01DF8012003F01AFD012003F02D
:10032C0017FD0621F86800F013F8012003F010FD0A
:10033C00FB681B7943F00803DBB21946F86800F040
:10034C0007F8012003F004FD00BF1037BD4680BD47
:10035C0080B586B002AF78600B46FB70FB7823F05B
:10036C000F03FB73FB781B01BB73FB7B43F00C038C
:10037C00DBB23B72FB7B43F00803DBB27B72BB7BD3
:10038C0043F00C03DBB2BB72BB7B43F00803DBB264
:10039C00FB727B6898687B689B78194607F10802AA
:1003AC0064230093042304F015FB00BF1037BD46F3
:1003BC0080BD80B586B002AF78600B46FB70FB78D1
:1003CC0023F00F03FB73FB781B01BB73FB7B43F028
:1003DC000D03DBB23B72FB7B43F00903DBB27B7298
:1003EC00BB7B43F00D03DBB2BB72BB7B43F0090359
:1003FC00DBB2FB727B6898687B689B78194607F1C7
:10040C00080264230093042304F0E4FA00BF1037BD
:10041C00BD4680BD80B584B000AF78600B46FB70E4
:10042C001346BB700F4BFB607B685B78BA789A42C3
:10043C0003D97B685B78013BBB70BB7810333B44C2
:10044C0013F8042CFB781344DBB25BB263F07F032C
:10045C005BB2DBB219467868FFF77AFF00BF103742
:10046C00BD4680BD0040145480B584B000AF7860A8
:10047C000B46FB701346BB700F4BFB607B685B78C5
:10048C00BA789A4203D97B685B78013BBB70BB7826
:10049C0010333B4413F8042CFB781344DBB25BB2EF
:1004AC0063F07F035BB2DBB219467868FFF750FF4D
:1004BC0000BF1037BD4680BD0040145480B586B0D7
:1004CC0002AF78600B46FB70FB7823F00F03FB73D5
:1004DC00FB781B01BB73FB7B43F00D03DBB23B7260
:1004EC00FB7B43F00903DBB27B72BB7B43F00D0358
:1004FC00DBB2BB72BB7B43F00903DBB2FB727B68E4
:10050C0098687B689B78194607F10802642300936E
:10051C00042304F05FFA00BF1037BD4680BD80B5E0
:10052C0082B000AF7860396007E03B685A1C3A60D3
:10053C001B7819467868FFF73CFF3B681B78002B4B
:10054C00F3D100BF00BF0837BD4680BD80B582B077
:10055C0000AF786001217868FFF7FAFE052003F000
:10056C00F7FB002200217868FFF754FF00BF083723
:10057C00BD4680BD80B582B000AF78604FF40051AD
:10058C000A4804F0CAF80A4B1B78002B06D0084B1B
:10059C001B78013BDAB2064B1A7002E0044B0022C6
:1005AC001A7000BF0837BD4680BD00BF0010014067
:1005BC000000002080B584B002AF03F067FB00F0B0
:1005CC00FFF800F01FFA00F06FF900F0A3F900F04B
:1005DC003DF900F0EDF902F047FF4E2300930223A2
:1005EC00102268496848FFF748FE684805F02EFC61
:1005FC0000224FF48051664804F077F802F0DEFADE
:10060C000346002B01D102F051FD002200215E486F
:10061C00FFF72AFF5F495C48FFF781FF4FF48071B9
:10062C005D4800F08DFA0346002B5DD05B4B0F222A
:10063C001A70012200215448FFF716FF58495248FE
:10064C00FFF76DFF0023FB7129E0564802F030FFE5
:10065C000346002B08D1534802F080FA0346FB7185
:10066C00FB791B09FB711EE04FF480714A4800F0C6
:10067C0067FA0346BB71BB79002B0FD0032B07D154
:10068C0002F0B8FD6323FB71444B00221A7006E0A4
:10069C000223FB71414B00221A7000E000BF3F4B5C
:1006AC001B78002BD1D1FB79012B02D0632B03D00B
:1006BC0006E000F093FA17E03348FFF747FF13E02A
:1006CC003148FFF743FF002200212F48FFF7CCFEF3
:1006DC0035492D48FFF723FF4FF4FA6003F038FB40
:1006EC002948FFF733FF00BF2E4802F0E1FE034616
:1006FC00002B8AD12B4802F031FA0346002B29D06B
:10070C0001224FF48051224803F0EFFF1E48FFF7FF
:10071C001DFF002200211C48FFF7A6FE23491A48A2
:10072C00FFF7FDFE4FF4FA7003F012FB00224FF4BA
:10073C008051174803F0D9FF4FF0FF3306221C49B4
:10074C001C4805F07AFF4FF47A6003F001FB02F0CD
:10075C00FFFA5AE70C48FFF7F9FE002200210A487D
:10076C00FFF782FE14490848FFF7D9FE4FF0FF331C
:10077C000A2212490F4805F060FF40F6B83003F02A
:10078C00E7FA42E7A4000020EC0100205001002011
:10079C00000C01408C69000800080140000000209A
:1007AC009C690008DC010020AC690008BC690008E9
:1007BC001400002098010020C86900081C000020CB
:1007CC0080B590B000AF07F118032822002118461D
:1007DC0006F09EF83B1D00221A605A609A60DA609F
:1007EC001A610123BB614FF48033FB6100233B6230
:1007FC000123BB6202237B634FF48033BB634FF452
:10080C00E013FB6307F11803184604F0E9FB0346F9
:10081C00002B01D002F0FAFD0F237B600223BB609A
:10082C000023FB604FF480633B6100237B613B1D25
:10083C000221184604F056FE0346002B01D002F0AC
:10084C00E5FD00BF4037BD4680BD000080B500AF60
:10085C00124B134A1A60114B124A5A600F4B00226A
:10086C009A600E4B0022DA600C4B4FF480421A61F6
:10087C000A4B00225A61094B00229A61074B002255
:10088C00DA61064B00221A62044803F05FFF03464C
:10089C00002B01D002F0BAFD00BF80BDA4000020E7
:1008AC0000580040A086010080B500AF174B184AD5
:1008BC001A60164B4FF482725A60144B00229A60E5
:1008CC00124B0022DA60114B00221A610F4B0022EE
:1008DC005A610E4B4FF400729A610C4B3022DA6164
:1008EC000A4B00221A62094B00225A62074B002263
:1008FC009A62064B0A22DA62044804F08BFF034624
:10090C00002B01D002F082FD00BF80BDF80000205A
:10091C000030014080B586B000AF07F1080300221B
:10092C001A605A609A60DA603B4600221A605A607C
:10093C001E4B4FF080421A601C4B48F69F425A6087
:10094C001A4B00229A60194B40F2CF72DA60174BA7
:10095C0000221A61154B80229A61144805F026FA80
:10096C000346002B01D002F051FD4FF48053BB60C5
:10097C0007F1080319460D4805F0C2FB0346002B8E
:10098C0001D002F043FD00233B6000237B603B461B
:10099C001946064805F094FD0346002B01D002F0E1
:1009AC0035FD00BF1837BD4680BD00BF500100208B
:1009BC0080B500AF114B124A1A60104B4FF4E13264
:1009CC005A600E4B00229A600C4B0022DA600B4BE3
:1009DC0000221A61094B08225A61084B00229A61C5
:1009EC00064B0022DA61054805F0DAFD0346002BC0
:1009FC0001D002F00BFD00BF80BD00BF98010020AC
:100A0C000038014080B588B000AF07F11003002218
:100A1C001A605A609A60DA60454B9B69444A43F00D
:100A2C0010039361424B9B6903F01003FB60FB685E
:100A3C003F4B9B693E4A43F0200393613C4B9B69BF
:100A4C0003F02003BB60BB68394B9B69384A43F009
:100A5C0004039361364B9B6903F004037B607B6852
:100A6C00334B9B69324A43F008039361304B9B69CB
:100A7C0003F008033B603B6800224FF400512D4803
:100A8C0003F033FE002210212B4803F02EFE01222E
:100A9C004FF48051294803F028FE4FF400533B617A
:100AAC0001237B610023BB610223FB6107F110036F
:100ABC001946204803F07EFC10233B6101237B6127
:100ACC000023BB610223FB6107F1100319461A488E
:100ADC0003F070FC4FF480533B6101237B610023D6
:100AEC00BB610323FB6107F110031946134803F0A4
:100AFC0061FC4FF400433B6100237B610123BB612C
:100B0C0007F1100319460D4803F054FC4FF48073A1
:100B1C003B6100237B610123BB6107F11003194684
:100B2C00054803F047FC00BF2037BD4680BD00BF21
:100B3C00001002400010014000080140000C014070
:100B4C0080B584B000AF78600B467B807B881946FB
:100B5C00786803F0B3FD0346012B01D1002339E083
:100B6C00322003F0F5F87B881946786803F0A6FD6F
:100B7C000346012B01D100232CE03223FB7320E030
:100B8C000A2003F0E5F8FB7B013BFB73FB7B002B9E
:100B9C0017D1FA23FB730AE00A2003F0D9F8FB7B88
:100BAC00013BFB73FB7B002B01D1032312E07B8801
:100BBC001946786803F082FD0346002BECD0022323
:100BCC0008E07B881946786803F078FD0346002B13
:100BDC00D6D0012318461037BD4680BD80B586B0EF
:100BEC0000AFB64B0F221A70FF23FB75B448FFF70A
:100BFC00ADFC00220021B248FFF736FCB149B048E9
:100C0C00FFF78DFC01220021AD48FFF72DFCAE490A
:100C1C00AB48FFF784FC01F040BF4FF40041AB48F8
:100C2C00FFF78EFF0346002B6ED0A44B0F221A70D9
:100C3C00FB7D0133FB75FB7D032B01D8FB7D00E0B5
:100C4C000023FB75FB7D022B32D0022B46DC002BE4
:100C5C0002D0012B16D041E09948FFF777FC002217
:100C6C0000219748FFF700FC99499548FFF757FC7E
:100C7C00012200219248FFF7F7FB96499048FFF7B5
:100C8C004EFC41E08E48FFF761FC002200218C48AD
:100C9C00FFF7EAFB90498A48FFF741FC012200214B
:100CAC008748FFF7E1FB8D498548FFF738FC2BE0BF
:100CBC008348FFF74BFC002200218148FFF7D4FB4F
:100CCC0084497F48FFF72BFC012200217C48FFF769
:100CDC00CBFB83497A48FFF722FC15E07848FFF7F5
:100CEC0035FC002200217648FFF7BEFB7D49744895
:100CFC00FFF715FC012200217148FFF7B5FB7A497B
:100D0C006F48FFF70CFC00BF4FF480717748FFF77A
:100D1C0017FF0346002B01F0C086684B0F221A7098
:100D2C00FB7D022B01F09D86022B01F3B286002B7A
:100D3C0004D0012B00F0C18501F0ABBE6048FFF779
:100D4C0005FC002200215E48FFF78EFB68495C48D9
:100D5C00FFF7E5FB012200215948FFF785FB5A49B3
:100D6C005748FFF7DCFB0023BB7501237B7500F0B4
:100D7C0089BD524B1B78002B08D15148FFF7E6FB7D
:100D8C004FF47A7002F0E4FF01F093BE4FF400418F
:100D9C004E48FFF7D5FE0346002B54D0474B0F228D
:100DAC001A70BB7D0133BB75BB7D022B01D8BB7D9B
:100DBC0000E00023BB75BB7D012B02D0022B16D0AB
:100DCC002BE03F48FFF7C2FB002200213C48FFF715
:100DDC004BFB48493A48FFF7A2FB01220021384857
:100DEC00FFF742FB44493648FFF799FB2BE03448A8
:100DFC00FFF7ACFB002200213148FFF735FB3F49E0
:100E0C002F48FFF78CFB012200212D48FFF72CFB0C
:100E1C003B492B48FFF783FB15E02948FFF796FB6E
:100E2C00002200212648FFF71FFB33492448FFF717
:100E3C0076FB012200212248FFF716FB314920489E
:100E4C00FFF76DFB00BF4FF480712848FFF778FE69
:100E5C000346002B00F01685184B0F221A70BB7D31
:100E6C00012B04D0022B00F0868200F008BD144840
:100E7C00FFF76CFB002200211148FFF7F5FA22491D
:100E8C000F48FFF74CFB012200210D48FFF7ECFA4D
:100E9C001E490B48FFF743FB01233B750123FB74F1
:100EAC004FE2064B1B78002B32D10548FFF74EFB67
:100EBC004FF47A7002F04CFF01F0FBBD00000020F3
:100ECC00EC010020D8690008E8690008000C01401A
:100EDC00F8690008086A0008186A0008286A0008FF
:100EEC00386A0008486A0008586A0008000801407F
:100EFC00646A0008706A0008806A00089C6900082F
:100F0C00906A0008A06A0008A86A0008BC6A000879
:100F1C004FF40041A948FFF713FE0346002B00F0E5
:100F2C008B80A74B0F221A703B7D01333B753B7DA9
:100F3C00042B01D83B7D00E000233B753B7D013B3E
:100F4C00032B63D801A252F823F000BF690F0008ED
:100F5C00950F0008C10F0008ED0F00089948FFF726
:100F6C00F5FA002200219748FFF77EFA964995483A
:100F7C00FFF7D5FA012200219248FFF775FA934941
:100F8C009048FFF7CCFA57E08E48FFF7DFFA0022C3
:100F9C0000218C48FFF768FA8D498A48FFF7BFFAA1
:100FAC00012200218748FFF75FFA8A498548FFF73D
:100FBC00B6FA41E08348FFF7C9FA002200218148C4
:100FCC00FFF752FA84497F48FFF7A9FA0122002162
:100FDC007C48FFF749FA81497A48FFF7A0FA2BE0E1
:100FEC007848FFF7B3FA002200217648FFF73CFA65
:100FFC007B497448FFF793FA012200217148FFF7EF
:10100C0033FA78496F48FFF78AFA15E06D48FFF715
:10101C009DFA002200216B48FFF726FA6F496948B8
:10102C00FFF77DFA012200216648FFF71DFA6E4991
:10103C006448FFF774FA00BF4FF480716B48FFF7F8
:10104C007FFD0346002B00F07C815D4B0F221A7054
:10105C00BB7D1B01DAB23B7D1344BB703B7D013B76
:10106C00032B00F26B8101A252F823F089100008C7
:10107C002911000809120008A9120008BB781846AB
:10108C0001F0D8FF0346002B2ED04E48FFF75EFA36
:10109C00002200214B48FFF7E7F955494948FFF773
:1010AC003EFA012200214748FFF7DEF95149454835
:1010BC00FFF735FA4FF47A7002F04AFE4148FFF719
:1010CC0045FA002200213F48FFF7CEF93E493D4842
:1010DC00FFF725FA012200213A48FFF7C5F93B49F1
:1010EC003848FFF71CFA2CE1BB78184601F098FD44
:1010FC003448FFF72BFA002200213248FFF7B4F9ED
:10110C0031493048FFF70BFA012200212D48FFF737
:10111C00ABF92E492B48FFF702FA12E1BB781846BF
:10112C0001F088FF0346002B2ED02648FFF70EFA5D
:10113C00002200212348FFF797F92F492148FFF798
:10114C00EEF9012200211F48FFF78EF929491D48AD
:10115C00FFF7E5F94FF47A7002F0FAFD1948FFF742
:10116C00F5F9002200211748FFF77EF918491548B8
:10117C00FFF7D5F9012200211248FFF775F915493F
:10118C001048FFF7CCF9DCE0BB78184601F048FDBD
:10119C000C48FFF7DBF9002200210A48FFF764F93D
:1011AC000B490848FFF7BBF9012200210548FFF75E
:1011BC005BF908490348FFF7B2F9C2E0000C0140A3
:1011CC0000000020EC010020A86A0008BC6A00089E
:1011DC00D06A0008E46A0008F86A00080C6B000882
:1011EC00206B0008346B0008586A000800080140A6
:1011FC00406B0008486B0008546B0008BB7818461D
:10120C0001F018FF0346002B2ED0AD48FFF79EF9D6
:10121C0000220021AA48FFF727F9AA49A848FFF79E
:10122C007EF901220021A648FFF71EF9A649A44821
:10123C00FFF775F94FF47A7002F08AFDA048FFF7BA
:10124C0085F9002200219E48FFF70EF99F499C4822
:10125C00FFF765F9012200219948FFF705F99C4930
:10126C009748FFF75CF96CE0BB78184601F0D8FCA6
:10127C009348FFF76BF9002200219148FFF7F4F82F
:10128C0092498F48FFF74BF9012200218C48FFF758
:10129C00EBF88F498A48FFF742F952E0BB781846C1
:1012AC0001F0C8FE0346002B2ED08548FFF74EF9FF
:1012BC00002200218248FFF7D7F886498048FFF7C3
:1012CC002EF9012200217E48FFF7CEF87E497C489A
:1012DC00FFF725F94FF47A7002F03AFD7848FFF7E2
:1012EC0035F9002200217648FFF7BEF87A49744898
:1012FC00FFF715F9012200217148FFF7B5F877497E
:10130C006F48FFF70CF91CE0BB78184601F088FC1D
:10131C006B48FFF71BF9002200216948FFF7A4F87E
:10132C006D496748FFF7FBF8012200216448FFF77D
:10133C009BF86A496248FFF7F2F802E00023FB745D
:10134C0000BFFB7C012B3FF4ACAD5D48FFF7FEF812
:10135C00002200215A48FFF787F861495848FFF7E7
:10136C00DEF8012200215648FFF77EF85D4954480B
:10137C00FFF7D5F886E25248FFF7E8F80022002183
:10138C004F48FFF771F858494D48FFF7C8F801224C
:10139C0000214B48FFF768F854494948FFF7BFF85C
:1013AC000123BB7401237B744FE2514B1B78002B40
:1013BC0008D14348FFF7CAF84FF47A7002F0C8FC22
:1013CC0001F077BB4FF400414A48FFF7B9FB0346E5
:1013DC00002B00F0B180464B0F221A70BB7C0133FE
:1013EC00BB74BB7C042B01D8BB7C00E00023BB741A
:1013FC00BB7C013B032B00F2898001A252F823F045
:10140C001D1400084914000875140008A1140008E4
:10141C002B48FFF79BF8002200212948FFF724F8FE
:10142C0031492748FFF77BF8012200212448FFF7B8
:10143C001BF82E492248FFF772F87DE02048FFF791
:10144C0085F8002200211E48FFF70EF82A491C4897
:10145C00FFF765F8012200211948FFF705F8274925
:10146C001748FFF75CF867E01548FFF76FF80022A4
:10147C0000211348FEF7F8FF21491148FFF74FF8F8
:10148C00012200210E48FEF7EFFF1E490C48FFF722
:10149C0046F851E00A48FFF759F8002200210848A5
:1014AC00FEF7E2FF18490648FFF739F80122002140
:1014BC000348FEF7D9FF09490148FFF730F83BE034
:1014CC00EC0100205C6B0008486B0008F86A00080F
:1014DC000C6B0008646B0008206B0008346B000870
:1014EC00706A0008806A00086C6B0008806B00084A
:1014FC0000000020000C0140946B0008A86B000851
:10150C00BC6B0008D06B0008E46B0008BB48FFF70D
:10151C001DF800220021B948FEF7A6FFB849B748CC
:10152C00FEF7FDFF01220021B448FEF79DFFB549EF
:10153C00B248FEF7F4FF00BF4FF48071B248FFF7DA
:10154C00FFFA0346002B00F08081B04B0F221A707B
:10155C00BB7D1B01DAB2BB7C1344FB70BB7C013B33
:10156C00032B00F26F8101A252F823F089150008B9
:10157C0029160008C916000869170008FB781846D8
:10158C0001F058FD0346002B2ED09C48FEF7DEFFE1
:10159C00002200219948FEF767FF9D499748FEF706
:1015AC00BEFF012200219548FEF75EFF9949934842
:1015BC00FEF7B5FF4FF47A7002F0CAFB8F48FEF7C6
:1015CC00C5FF002200218D48FEF74EFF92498B4843
:1015DC00FEF7A5FF012200218848FEF745FF8F4941
:1015EC008648FEF79CFF30E1FB78184601F018FBAB
:1015FC008248FEF7ABFF002200218048FEF734FF43
:10160C0085497E48FEF78BFF012200217B48FEF7BF
:10161C002BFF82497948FEF782FF16E1FB781846CA
:10162C0001F008FD0346002B2ED07448FEF78EFF08
:10163C00002200217148FEF717FF79496F48FEF729
:10164C006EFF012200216D48FEF70EFF71496B48B9
:10165C00FEF765FF4FF47A7002F07AFB6748FEF7ED
:10166C0075FF002200216548FEF7FEFE6D496348B8
:10167C00FEF755FF012200216048FEF7F5FE6A498E
:10168C005E48FEF74CFFE0E0FB78184601F0C8FA24
:10169C005A48FEF75BFF002200215848FEF7E4FE93
:1016AC0060495648FEF73BFF012200215348FEF7E4
:1016BC00DBFE5D495148FEF732FFC6E0FB78184669
:1016CC0001F0B8FC0346002B2ED04C48FEF73EFF31
:1016DC00002200214948FEF7C7FE54494748FEF74F
:1016EC001EFF012200214548FEF7BEFE4949434832
:1016FC00FEF715FF4FF47A7002F02AFB3F48FEF715
:10170C0025FF002200213D48FEF7AEFE48493B482C
:10171C00FEF705FF012200213848FEF7A5FE3849E7
:10172C003648FEF7FCFE90E0FB78184601F078FA9C
:10173C003248FEF70BFF002200213048FEF794FEE2
:10174C003B492E48FEF7EBFE012200212B48FEF709
:10175C008BFE2B492948FEF7E2FE76E0FB78184613
:10176C0001F068FC0346002B2ED02448FEF7EEFE59
:10177C00002200212148FEF777FE2E491F48FEF774
:10178C00CEFE012200211D48FEF76EFE21491B48AA
:10179C00FEF7C5FE4FF47A7002F0DAFA1748FEF73E
:1017AC00D5FE002200211548FEF75EFE22491348A3
:1017BC00FEF7B5FE012200211048FEF755FE1F4929
:1017CC000E48FEF7ACFE40E0FB78184601F028FA14
:1017DC000A48FEF7BBFE002200210848FEF744FE33
:1017EC0017490648FEF79BFE012200210348FEF72D
:1017FC003BFE12490148FEF792FE26E0EC01002068
:10180C00D06B0008586A0008000801400000002056
:10181C00F86B0008486B00086C6B0008806B0008C4
:10182C00006C0008946B0008A86B0008086C00089A
:10183C00BC6B0008106C0008186C0008346B0008B6
:10184C00E46B000800237B7400BF7B7C012B3FF40E
:10185C00ACADB148FEF77AFE00220021AE48FEF78F
:10186C0003FEAE49AC48FEF75AFE01220021AA48FD
:10187C00FEF7FAFDAA49A848FEF751FE02E0002344
:10188C007B7500BF7B7D012B3FF473AAA248FEF74A
:10189C005DFE00220021A048FEF7E6FDA1499E480E
:1018AC00FEF73DFE012200219B48FEF7DDFD9E491F
:1018BC009948FEF734FE01F0F0B89748FEF746FE63
:1018CC00002200219448FEF7CFFD98499248FEF77C
:1018DC0026FE012200219048FEF7C6FD94498E4851
:1018EC00FEF71DFEFF233B740123FB7301F09FB831
:1018FC00904B1B78002B08D18748FEF727FE4FF43E
:10190C007A7002F025FA01F0D4B84FF400418A48FD
:10191C00FFF716F90346002B54D0864B0F221A7092
:10192C003B7C01333B743B7C022B01D83B7C00E0BD
:10193C0000233B743B7C002B02D0012B16D02BE0F8
:10194C007548FEF703FE002200217348FEF78CFD5C
:10195C007A497148FEF7E3FD012200216E48FEF73B
:10196C0083FD77496C48FEF7DAFD2BE06A48FEF7F9
:10197C00EDFD002200216848FEF776FD71496648AE
:10198C00FEF7CDFD012200216348FEF76DFD6E4987
:10199C006148FEF7C4FD15E05F48FEF7D7FD002255
:1019AC0000215D48FEF760FD65495B48FEF7B7FD19
:1019BC00012200215848FEF757FD64495648FEF7AE
:1019CC00AEFD00BF4FF480716148FFF7B9F80346D4
:1019DC00002B01F02C80574B0F221A703B7C002BF4
:1019EC0004D0012B01F0188001F01EB84A48FEF714
:1019FC00ADFD002200214848FEF736FD554946480A
:101A0C00FEF78DFD012200214348FEF72DFD5249C2
:101A1C004148FEF784FD0023BB7301237B7300F068
:101A2C00E1BF444B1B78002B08D13B48FEF78EFDE1
:101A3C004FF47A7002F08CF901F03BB84FF400418E
:101A4C003D48FFF77DF80346002B51D0BB7B01339B
:101A5C00BB73BB7B022B01D8BB7B00E00023BB73A9
:101A6C00BB7B002B02D0012B16D02BE02A48FEF7B3
:101A7C006DFD002200212848FEF7F6FC354926486A
:101A8C00FEF74DFD012200212348FEF7EDFC324903
:101A9C002148FEF744FD2BE01F48FEF757FD0022BE
:101AAC0000211D48FEF7E0FC2C491B48FEF737FDD2
:101ABC00012200211848FEF7D7FC29491648FEF7E9
:101ACC002EFD15E01448FEF741FD002200211248BE
:101ADC00FEF7CAFC20491048FEF721FD0122002127
:101AEC000D48FEF7C1FC19490B48FEF718FD00BF65
:101AFC004FF480711648FFF723F80346002B00F0D3
:101B0C0071870C4B0F221A70BB7B002B2AD0012B38
:101B1C0000F0B18600F063BFEC0100209C69000866
:101B2C00906A0008F8690008086A0008246C00082C
:101B3C00E869000800000020000C0140346C00082B
:101B4C00446C0008546C0008646C0008A06A00081F
:101B5C0000080140746C0008846C0008946C000848
:101B6C00A46C0008BA48FEF7F1FC00220021B8482A
:101B7C00FEF77AFCB749B648FEF7D1FC01220021EA
:101B8C00B348FEF771FCB449B148FEF7C8FC012319
:101B9C003B730123FB7200F054BEB04B1B78002B3F
:101BAC0008D1AB48FEF7D2FC4FF47A7002F0D0F8B3
:101BBC0000F07FBF4FF40041A948FEF7C1FF034678
:101BCC00002B54D0A54B0F221A703B7B01333B7377
:101BDC003B7B022B01D83B7B00E000233B733B7B20
:101BEC00012B02D0022B16D02BE09948FEF7AEFC4D
:101BFC00002200219648FEF737FC96499448FEF7E0
:101C0C008EFC012200219248FEF72EFC924990484E
:101C1C00FEF785FC2BE08E48FEF798FC0022002195
:101C2C008B48FEF721FC8F498948FEF778FC01228E
:101C3C0000218748FEF718FC8B498548FEF76FFC9E
:101C4C0015E08348FEF782FC002200218048FEF755
:101C5C000BFC81497E48FEF762FC012200217C4886
:101C6C00FEF702FC81497A48FEF759FC00BF4FF49D
:101C7C0080717F48FEF764FF0346002B00F0E1857E
:101C8C00764B0F221A703B7B012B04D0022B00F0F9
:101C9C00008300F0D3BD6E48FEF758FC00220021F3
:101CAC006B48FEF7E1FB73496948FEF738FC0122EB
:101CBC0000216748FEF7D8FB6F496548FEF72FFCFB
:101CCC000123BB7201237B72C9E2644B1B78002B8E
:101CDC0008D15F48FEF73AFC4FF47A7002F038F8FE
:101CEC0000F0E7BE4FF400415D48FEF729FF0346C4
:101CFC00002B00F08B80594B0F221A70BB7A0133EA
:101D0C00BB72BB7A042B01D8BB7A00E00023BB72F8
:101D1C00BB7A013B032B63D801A252F823F000BF1E
:101D2C003D1D0008691D0008951D0008C11D000817
:101D3C004748FEF70BFC002200214548FEF794FBB8
:101D4C004C494348FEF7EBFB012200214048FEF7CB
:101D5C008BFB49493E48FEF7E2FB57E03C48FEF757
:101D6C00F5FB002200213A48FEF77EFB4349384838
:101D7C00FEF7D5FB012200213548FEF775FB4049E3
:101D8C003348FEF7CCFB41E03148FEF7DFFB002285
:101D9C0000212F48FEF768FB3A492D48FEF7BFFBA0
:101DAC00012200212A48FEF75FFB37492848FEF73D
:101DBC00B6FB2BE02648FEF7C9FB00220021244885
:101DCC00FEF752FB31492248FEF7A9FB0122002104
:101DDC001F48FEF749FB2E491D48FEF7A0FB15E0F6
:101DEC001B48FEF7B3FB002200211948FEF73CFB11
:101DFC0025491748FEF793FB012200211448FEF7F2
:101E0C0033FB24491248FEF78AFB00BF4FF4807164
:101E1C001748FEF795FE0346002B00F020820F4B6F
:101E2C000F221A703B7B1B01DAB2BB7A13443B7155
:101E3C00BB7A013B032B00F20F8201A252F823F074
:101E4C00A51E0008831F0008612000083F21000820
:101E5C00EC010020706A0008806A00080000002075
:101E6C00000C01409C690008906A0008A06A0008F8
:101E7C0000080140A86A0008BC6A0008D06A000883
:101E8C00E46A0008F86A00080C6B0008206B000874
:101E9C00346B0008586A00083B79184601F0CAF800
:101EAC000346002B25D1B948FEF750FB0022002138
:101EBC00B648FEF7D9FAB649B448FEF730FB4FF4F2
:101ECC007A7001F045FFB148FEF740FB002200217B
:101EDC00AE48FEF7C9FAAF49AC48FEF720FB012229
:101EEC000021AA48FEF7C0FAAB49A848FEF717FB39
:101EFC00B5E13B79184601F09DF80346184601F010
:101F0C00C7F8A248FEF722FB002200219F48FEF7EB
:101F1C00ABFAA2499D48FEF702FB012200219B4827
:101F2C00FEF7A2FA9E499948FEF7F9FA4FF47A7037
:101F3C0001F00EFF00F042FE0346002B05D101F02C
:101F4C00B5F8984B00221A7089E19048FEF7FEFA1A
:101F5C00002200218D48FEF787FA8E498B48FEF748
:101F6C00DEFA012200218948FEF77EFA8A49874869
:101F7C00FEF7D5FA73E13B79184601F05BF803469E
:101F8C00002B25D18148FEF7E1FA002200217F4881
:101F9C00FEF76AFA84497D48FEF7C1FA4FF47A706D
:101FAC0001F0D6FE7948FEF7D1FA002200217748DD
:101FBC00FEF75AFA7D497548FEF7B1FA0122002165
:101FCC007248FEF751FA7A497048FEF7A8FA46E1D2
:101FDC003B79184601F02EF80346184601F058F8E4
:101FEC006A48FEF7B3FA002200216848FEF73CFA73
:101FFC0070496648FEF793FA012200216348FEF708
:10200C0033FA67496148FEF78AFA4FF47A7001F0A7
:10201C009FFE00F0D3FD0346002B05D101F046F8DE
:10202C00604B00221A701AE15848FEF78FFA002212
:10203C0000215648FEF718FA5C495448FEF76FFA2F
:10204C00012200215148FEF70FFA59494F48FEF77B
:10205C0066FA04E13B79184600F0ECFF0346002BCE
:10206C0025D14A48FEF772FA002200214748FEF7B4
:10207C00FBF951494548FEF752FA4FF47A7001F0DA
:10208C0067FE4248FEF762FA002200213F48FEF745
:10209C00EBF94A493D48FEF742FA012200213B4840
:1020AC00FEF7E2F946493948FEF739FAD7E03B79B1
:1020BC00184600F0BFFF0346184600F0E9FF33480E
:1020CC00FEF744FA002200213048FEF7CDF93D49D5
:1020DC002E48FEF724FA012200212C48FEF7C4F901
:1020EC002F492A48FEF71BFA4FF47A7001F030FEA4
:1020FC0000F064FD0346002B05D100F0D7FF294BFF
:10210C0000221A70ABE02148FEF720FA00220021D1
:10211C001E48FEF7A9F929491C48FEF700FA0122CE
:10212C0000211A48FEF7A0F925491848FEF7F7F9DF
:10213C0095E03B79184600F07DFF0346002B49D112
:10214C001248FEF703FA002200211048FEF78CF922
:10215C001D490E48FEF7E3F94FF47A7001F0F8FDD3
:10216C000A48FEF7F3F9002200210848FEF77CF933
:10217C0016490648FEF7D3F9012200210348FEF761
:10218C0073F913490148FEF7CAF968E0EC01002025
:10219C00B46C0008A86A0008BC6A0008C86C000887
:1021AC00DC6C000800000020EC6C0008D06A000811
:1021BC00E46A0008006D0008146D0008F86A000855
:1021CC000C6B0008286D00083C6D0008206B0008A3
:1021DC00346B00083B79184600F02CFF0346184678
:1021EC0000F056FFAF48FEF7B1F900220021AD48D0
:1021FC00FEF73AF9AC49AB48FEF791F90122002100
:10220C00A848FEF731F9A949A648FEF788F94FF41A
:10221C007A7001F09DFD00F0D1FC0346002B05D136
:10222C0000F044FFA24B00221A7018E09D48FEF704
:10223C008DF9002200219B48FEF716F99D4999481B
:10224C00FEF76DF9012200219648FEF70DF99A4927
:10225C009448FEF764F902E000237B7200BF7B7A9E
:10226C00012B3FF432AD8F48FEF770F900220021AC
:10227C008C48FEF7F9F891498A48FEF750F901228B
:10228C0000218848FEF7F0F88D498648FEF747F99B
:10229C00D7E28448FEF75AF9002200218148FEF764
:1022AC00E3F888497F48FEF73AF9012200217D487E
:1022BC00FEF7DAF884497B48FEF731F901233B72CB
:1022CC000123FB717AE27A4B1B78002B07D17548FE
:1022DC00FEF73CF94FF47A7001F03AFDE9E34FF464
:1022EC0000417A48FEF72CFC0346002B00F08A8054
:1022FC006F4B0F221A703B7A01333B723B7A042BE3
:10230C0001D83B7A00E000233B723B7A013B032B64
:10231C0062D801A252F823F035230008612300088B
:10232C008D230008B92300085E48FEF70FF9002240
:10233C0000215C48FEF798F862495A48FEF7EFF81E
:10234C00012200215748FEF78FF85F495548FEF7E8
:10235C00E6F857E05348FEF7F9F8002200215148FF
:10236C00FEF782F85A494F48FEF7D9F801220021AE
:10237C004C48FEF779F857494A48FEF7D0F841E047
:10238C004848FEF7E3F8002200214648FEF76CF8B7
:10239C0051494448FEF7C3F8012200214148FEF799
:1023AC0063F84E493F48FEF7BAF82BE03D48FEF77C
:1023BC00CDF8002200213B48FEF756F84849394831
:1023CC00FEF7ADF8012200213648FEF74DF83A49E8
:1023DC003448FEF7A4F815E03248FEF7B7F80022AF
:1023EC0000213048FEF740F83C492E48FEF797F89C
:1023FC00012200212B48FEF737F83A492948FEF70D
:10240C008EF800BF4FF480713748FEF799FB0346F6
:10241C00002B00F0D381264B0F221A703B7B1B0143
:10242C00DAB23B7A13447B713B7A013B032B00F20B
:10243C00C28101A252F823F0552400086B25000834
:10244C0033260008FB2600087B79184600F0F2FDC5
:10245C000346002B4CD11348FEF778F800220021DC
:10246C001048FEF701F821490E48FEF758F84FF4D2
:10247C007A7001F06DFC0B48FEF768F80022002121
:10248C000848FDF7F1FF0F490648FEF748F801220E
:10249C0000210448FDF7E8FF0B490248FEF73FF81E
:1024AC008CE100BFEC010020506D0008DC6C0008D2
:1024BC0000000020206B0008346B0008706A0008D4
:1024CC00806A00086C6B0008806B0008000C0140EF
:1024DC00946B0008A86B0008BC6B0008D06B00085C
:1024EC00E46B0008586A000800080140646D00089D
:1024FC007B79184600F09EFD0346184600F0C8FD97
:10250C00BB48FEF723F800220021B948FDF7ACFFC9
:10251C00B849B748FEF703F801220021B448FDF78B
:10252C00A3FFB549B248FDF7FAFF4FF47A7001F0FA
:10253C000FFCAF48FEF70AF800220021AC48FDF76B
:10254C0093FFAE49AA48FDF7EAFF01220021A848F3
:10255C00FDF78AFFAA49A648FDF7E1FF2EE17B793A
:10256C00184600F067FD0346002B25D1A048FDF767
:10257C00EDFF002200219E48FDF776FFA1499C4803
:10258C00FDF7CDFF4FF47A7001F0E2FB9848FDF7B0
:10259C00DDFF002200219648FDF766FF9A4994481A
:1025AC00FDF7BDFF012200219148FDF75DFF974922
:1025BC008F48FDF7B4FF01E17B79184600F03AFD36
:1025CC000346184600F064FD8948FDF7BFFF002262
:1025DC0000218748FDF748FF8D498548FDF79FFF8F
:1025EC00012200218248FDF73FFF83498048FDF717
:1025FC0096FF4FF47A7001F0ABFB7D48FDF7A6FF18
:10260C00002200217A48FDF72FFF7F497848FDF71B
:10261C0086FF012200217648FDF726FF7B4974488E
:10262C00FDF77DFFCAE07B79184600F003FD0346F9
:10263C00002B25D16E48FDF789FF002200216C4844
:10264C00FDF712FF73496A48FDF769FF4FF47A7082
:10265C0001F07EFB6648FDF779FF002200216448FB
:10266C00FDF702FF6C496248FDF759FF012200217A
:10267C005F48FDF7F9FE69495D48FDF750FF9DE0A5
:10268C007B79184600F0D6FC0346184600F000FD96
:10269C005748FDF75BFF002200215548FDF7E4FE8B
:1026AC005F495348FDF73BFF012200215048FDF7DD
:1026BC00DBFE51494E48FDF732FF4FF47A7001F0C2
:1026CC0047FB4B48FDF742FF002200214848FDF72D
:1026DC00CBFE51494648FDF722FF01220021444818
:1026EC00FDF7C2FE4D494248FDF719FF66E07B79C4
:1026FC00184600F09FFC0346002B25D13C48FDF703
:10270C0025FF002200213A48FDF7AEFE4549384826
:10271C00FDF705FF4FF47A7001F01AFB3448FDF712
:10272C0015FF002200213248FDF79EFE3E4930483D
:10273C00FDF7F5FE012200212D48FDF795FE3B49E2
:10274C002B48FDF7ECFE39E07B79184600F072FC63
:10275C000346184600F09CFC2548FDF7F7FE0022C6
:10276C0000212348FDF780FE31492148FDF7D7FEB3
:10277C00012200211E48FDF777FE1F491C48FDF77A
:10278C00CEFE4FF47A7001F0E3FA1948FDF7DEFE45
:10279C00002200211648FDF767FE23491448FDF777
:1027AC00BEFE012200211248FDF75EFE1F491048B3
:1027BC00FDF7B5FE02E00023FB7100BFFB79012B96
:1027CC003FF481AD0A48FDF7C1FE00220021084804
:1027DC00FDF74AFE17490648FDF7A1FE012200212C
:1027EC000348FDF741FE14490148FDF798FE28E027
:1027FC00EC010020C86C0008DC6C00086C6B000855
:10280C00806B0008786D0008946B0008A86B0008BA
:10281C00006D00088C6D0008BC6B0008D06B0008C4
:10282C00286D0008A06D0008E46B0008346B0008EC
:10283C00506D00089C690008906A00080023FB7228
:10284C0000BFFB7A012B3FF4A8A99B48FDF77EFE45
:10285C00002200219848FDF707FE98499648FDF79D
:10286C005EFE012200219448FDF7FEFD944992483A
:10287C00FDF755FEB6E09048FDF768FE00220021FA
:10288C008D48FDF7F1FD8F498B48FDF748FE01227D
:10289C0000218948FDF7E8FD8B498748FDF73FFE8D
:1028AC000123BB7181E0894800F002FE0346002B36
:1028BC0071D1864800F052F90346002B46D083486C
:1028CC0000F04CF90346184600F0B4FB03461846DA
:1028DC0000F0DEFB7848FDF739FE00220021764837
:1028EC00FDF7C2FD7A497448FDF719FE012200215B
:1028FC007148FDF7B9FD77496F48FDF710FE4FF4AD
:10290C007A7001F025FA00F059F90346002B07D133
:10291C0000F0CCFB0123BB716F4B00221A70C8E096
:10292C006548FDF713FE002200216348FDF79CFD6E
:10293C0064496148FDF7F3FD012200215E48FDF773
:10294C0093FD61495C48FDF7EAFD24E05A48FDF728
:10295C00FDFD002200215848FDF786FD5F495648D1
:10296C00FDF7DDFD4FF47A7001F0F2F95248FDF7F6
:10297C00EDFD002200215048FDF776FD51494E48EF
:10298C00FDF7CDFD012200214B48FDF76DFD4E49B1
:10299C004948FDF7C4FD4FF480715148FEF7D0F85B
:1029AC000346012B01D10023BB71BB79002B7FF4B3
:1029BC007AAF4148FDF7CAFD002200213E48FDF7E1
:1029CC0053FD48493C48FDF7AAFD012200213A4835
:1029DC00FDF74AFD44493848FDF7A1FD02E000230C
:1029EC007B7300BF7B7B012B3FF41BA83248FDF7A8
:1029FC00ADFD002200213048FDF736FD3B492E4845
:102A0C00FDF78DFD012200212B48FDF72DFD3849E6
:102A1C002948FDF784FD0AE000F0DCFC00F046FBE1
:102A2C002D4B00221A7002E00023FB7300BFFB7BCE
:102A3C00012B3EF45DAF2048FDF788FD00220021FC
:102A4C001D48FDF711FD2B491B48FDF768FD0122C0
:102A5C0000211948FDF708FD27491748FDF75FFDD0
:102A6C001BE000F0F7F91448FDF770FD002200217F
:102A7C001148FDF7F9FC21490F48FDF750FD0122E3
:102A8C0000210D48FDF7F0FC1D490B48FDF747FDF3
:102A9C0003E0114B00221A7000BF0F4B1B78002B68
:102AAC007EF4BBA80448FDF751FD4FF47A7001F099
:102ABC004FF91837BD4680BDEC010020746C00083E
:102ACC00846C0008B46D0008586A0008DC01002012
:102ADC00C06D0008DC6C000800000020D46D0008FC
:102AEC0000080140946C0008A46C0008346C0008C9
:102AFC00446C0008186A0008286A0008086A000874
:102B0C00386A000880B586B000AF7860396007F18C
:102B1C000C03082219463868FDF78EFBBB7CFF2B93
:102B2C0001D0002316E00023FB750FE0FB7D7A68D3
:102B3C0013441A78FB7D18333B4413F80C3C9A422F
:102B4C0001D0002306E0FB7D0133FB75FB7D042BDC
:102B5C00ECD9012318461837BD4680BD80B584B02A
:102B6C0000AF7860144BFB6018E0FB680633184626
:102B7C00FDF749FB03461A464FF6FF739A420AD1FA
:102B8C00F9687868FFF7BEFF0346012B03D1FB6899
:102B9C0005331B780BE0FB680833FB60FB680533DF
:102BAC001846FDF724FB0346FF2BDED10023184605
:102BBC001037BD4680BD00BF00A0000880B582B0B4
:102BCC0000AF164B7B600023FB701AE07B6806336A
:102BDC001846FDF718FB03461A464FF6FF739A4248
:102BEC000CD17B6805331846FDF701FB03461B0926
:102BFC00DBB2012B02D1FB780133FB707B6808330D
:102C0C007B607B6805331846FDF7F1FA0346FF2B12
:102C1C00DCD1FB7818460837BD4680BD00A0000803
:102C2C0080B582B000AF0346FB7100F0C7FA3E4896
:102C3C00FDF78CFC002200213B48FDF715FC3B49BD
:102C4C003948FDF76CFC012200213748FDF70CFCDC
:102C5C0037493548FDF763FC5DE0364800F028FC49
:102C6C000346002B4FD1344B1B68184601F070F80B
:102C7C003048FFF773FF0346002B1FD12D4AFB7919
:102C8C0053712E4B1B6806222A491846FDF78CFA05
:102C9C002A4B1B680833294A13602348FDF756FC5E
:102CAC00002200212048FDF7DFFB25491E48FDF7D7
:102CBC0036FC4FF47A7001F04BF832E01A48FDF70D
:102CCC0045FC002200211848FDF7CEFB1D49164893
:102CDC00FDF725FC4FF47A7001F03AF81248FDF735
:102CEC0035FC002200211048FDF7BEFB0F490E48B1
:102CFC00FDF715FC012200210B48FDF7B5FB0C4933
:102D0C000948FDF70CFC4FF480710F48FDF718FFD4
:102D1C000346012B04D00D4B1B78002B9DD100E0FA
:102D2C0000BF0837BD4680BDEC010020B46D000823
:102D3C00586A0008DC01002010000020040000206C
:102D4C00E86D0008F46D0008000801400000002048
:102D5C0080B582B000AF3548FFF700FF0346FB712A
:102D6C00FB7903F00F03BB71FB791B097B717B793A
:102D7C00012B29D1BB79032B16D0032B1CDC012B87
:102D8C0002D0022B08D017E04FF0FF33062228495F
:102D9C00284803F052FC17E04FF0FF330622264977
:102DAC00244803F04AFC0FE04FF0FF33062223497E
:102DBC00204803F042FC07E04FF0FF330622204985
:102DCC001C4803F03AFC00BF7B79012B29D0BB795E
:102DDC00032B16D0032B1CDC012B02D0022B08D0AA
:102DEC0017E04FF0FF3306221649124803F025FC7A
:102DFC0017E04FF0FF33062213490E4803F01DFC79
:102E0C000FE04FF0FF33062210490A4803F015FC7F
:102E1C0007E04FF0FF3306220D49064803F00DFC86
:102E2C0000BF00BF0837BD4680BD00BFDC010020DD
:102E3C0038000020980100204000002048000020AD
:102E4C005000002058000020600000206800002086
:102E5C007000002080B582B000AF694B1E221A7042
:102E6C006848FDF773FB002200216648FDF7FCFA69
:102E7C0065496448FDF753FB012200216148FDF7C9
:102E8C00F3FA62495F48FDF74AFBAFE0604800F097
:102E9C000FFB0346002B40F0A1805D48FFF75EFE60
:102EAC000346002B29D15748FDF750FB0022002187
:102EBC005448FDF7D9FA57495248FDF730FB4FF407
:102ECC007A7000F045FF4F48FDF740FB00220021CF
:102EDC004C48FDF7C9FA4C494A48FDF720FB012242
:102EEC0000214848FDF7C0FA48494648FDF717FB52
:102EFC004FF47A7000F02CFF70E04548FFF72EFE7F
:102F0C000346FB71FB7903F00F03BB71FB791B09C3
:102F1C007B713C48FDF71AFB7B79012B09D1002210
:102F2C0000213848FDF7A0FA3B493648FDF7F7FA7F
:102F3C0009E0002200213348FDF796FA3749314861
:102F4C00FDF7EDFA00BFBB79032B1AD0032B22DC63
:102F5C00012B02D0022B0AD01DE0012200212948AE
:102F6C00FDF782FA2E492748FDF7D9FA1DE0012218
:102F7C0000212448FDF778FA2A492248FDF7CFFAB8
:102F8C0013E0012200211F48FDF76EFA26491D4867
:102F9C00FDF7C5FA09E0012200211A48FDF764FA91
:102FAC0022491848FDF7BBFA00BF4FF47A7000F0C5
:102FBC00CFFE1448FDF7CAFA002200211148FDF794
:102FCC0053FA11490F48FDF7AAFA012200210D48C6
:102FDC00FDF74AFA0D490B48FDF7A1FA4FF4807141
:102FEC001348FDF7ADFD0346012B05D0044B1B78B0
:102FFC00002B7FF44BAF00E000BF0837BD4680BD0F
:10300C0000000020EC010020B46D0008586A000894
:10301C00DC010020046E0008146E0008206E00080D
:10302C002C6E0008346E00083C6E0008446E0008DC
:10303C000008014080B584B000AF0346FB71134B10
:10304C00FB6015E0FB6806331846FDF7DCF8034619
:10305C001A464FF6FF739A4207D1FB6805331B786B
:10306C00FA799A4201D1FB680BE0FB680833FB60EC
:10307C00FB6805331846FDF7BAF80346FF2BE1D180
:10308C00002318461037BD4680BD00BF00A00008C5
:10309C0080B582B000AF78607B680633002118469B
:1030AC00FDF76AF800BF0837BD4680BD80B500AF9C
:1030BC003B48FDF74BFA002200213948FDF7D4F9C3
:1030CC0038493748FDF72BFA012200213448FDF727
:1030DC00CBF935493248FDF722FA00F06FF8334846
:1030EC0000F0E6F90346002BF9D13048FFF736FD26
:1030FC000346002B0FD12D4B11225A712C4B1B6800
:10310C0006222A491846FDF74FF8294B1B6808334D
:10311C00274A136025E02248FDF718FA0022002107
:10312C001F48FDF7A1F923491D48FDF7F8F94FF4A5
:10313C007A7000F00DFE1A48FDF708FA0022002103
:10314C001748FDF791F917491548FDF7E8F90122E1
:10315C0000211348FDF788F913491148FDF7DFF9F1
:10316C00BDE70F48FDF7F2F9002200210C48FDF7EE
:10317C007BF911490A48FDF7D2F9012200210848D0
:10318C00FDF772F908490648FDF7C9F94FF47A7052
:10319C0000F0DEFD0248FDF7D9F900BF80BD00BF8D
:1031AC00EC010020B46D0008146E0008DC01002056
:1031BC0004000020F46D00084C6E000880B582B04D
:1031CC0000AF0A4B7B6002E07B6808337B607B6856
:1031DC0005331846FDF70BF80346FF2BF4D1044AD0
:1031EC007B68136000BF0837BD4680BD00A0000897
:1031FC000400002080B586B000AF6B48FDF7A6F93F
:10320C00002200216848FDF72FF968496648FDF750
:10321C0086F9674B78221A70FF237B6007F108034D
:10322C0000221A605A609A600023FB75FF23BB755D
:10323C004FF47A7000F08CFDFB7D012219465A4840
:10324C00FDF712F95F215848FDF738F9A4E04FF467
:10325C0000415848FDF774FC0346012B14D1BB7D8B
:10326C000133BB75BB7D0A2B01D10023BB75FB7DE4
:10327C00012219464C48FDF7F7F8BB7D3033DBB221
:10328C0019464948FDF71AF94FF480714A48FDF781
:10329C0057FC0346012B7FD1FB7D01221946424886
:1032AC00FDF7E2F82A214048FDF708F9FB7D1833B9
:1032BC003B44BA7D03F8142CFB7D0133FB75FF23D3
:1032CC00BB75FB7D062B54D100237B7524E07B7DE5
:1032DC0018333B4413F8142C7B7D3849CB5C9A4251
:1032EC0017D03148FDF732F9002200212E48FDF7A6
:1032FC00BBF833492C48FDF712F94FF0FF330E227F
:10330C003049314803F099F940F6B83000F020FD0F
:10331C0047E07B7D01337B757B7D052BD7D9012263
:10332C004FF48051234801F0E0F91F48FDF70EF9E6
:10333C00002200211C48FDF797F824491A48FDF794
:10334C00EEF84FF4FA7000F003FD00224FF48051B8
:10335C00184801F0CAF94FF0FF3306221C491A48ED
:10336C0003F06BF94FF47A6000F0F2FC104B002282
:10337C001A70FB7D012219460B48FDF775F85F2189
:10338C000948FDF79BF800BF4FF400410948FDF7D1
:10339C00D7FB0346002BF7D1054B1B78002B7FF492
:1033AC0056AF1837BD4680BDEC010020686E000892
:1033BC0000000020000C0140000801400800002023
:1033CC00786E00082800002098010020BC690008D5
:1033DC001400002080B582B000AF0B4B7B6002E084
:1033EC007868FCF7ADFE7868FCF719FF02460B46CF
:1033FC00B3F1FF3F08BFB2F1FF3FF1D100BF00BFF7
:10340C000837BD4680BD00BF00A0000880B400AFE7
:10341C0072B600BF00BFFDE780B586B002AF0346B1
:10342C00FB71FB793B7300BF0E4B1B689B6803F071
:10343C000203022BF8D107F1080207F10C010A2351
:10344C0000930123074802F069FA00BF054B1B6883
:10345C009B6803F08003802BF8D03B7A184610371A
:10346C00BD4680BDF800002080B500AF00F0D5F857
:10347C008D212A2000F036F83E212B2000F032F866
:10348C001E212D2000F02EF800212C2000F02AF80F
:10349C007021262000F026F84021152000F022F89B
:1034AC003D21112000F01EF800F0A2F800BF80BDF5
:1034BC0080B584B000AF78607968262000F0B5F84C
:1034CC000346FB73FB7B002B04D1786800F0A1F959
:1034DC000346FB7300F023FAFB7B18461037BD46FE
:1034EC0080BD000080B582B000AF03460A46FB7178
:1034FC001346BB71002210210C4801F0F6F8FB7941
:10350C005B00DBB203F07E03DBB21846FFF784FFEF
:10351C00BB791846FFF780FF01221021034801F008
:10352C00E4F800BF0837BD4680BD00BF000801406D
:10353C0080B584B000AF0346FB71002210210F4808
:10354C0001F0D3F8FB795B005BB203F07E035BB256
:10355C0063F07F035BB2DBB21846FFF75DFF002020
:10356C00FFF75AFF0346FB7301221021034801F0B9
:10357C00BCF8FB7B18461037BD4680BD00080140E7
:10358C0080B582B000AF03460A46FB711346BB718F
:10359C00FB791846FFF7CCFF03461A46BB79134359
:1035AC00DAB2FB7911461846FFF79CFF00BF0837CB
:1035BC00BD4680BD80B582B000AF03460A46FB71A4
:1035CC001346BB71FB791846FFF7B2FF03465AB29C
:1035DC0097F90630DB435BB213405BB2DAB2FB798E
:1035EC0011461846FFF77EFF00BF0837BD4680BD69
:1035FC0080B582B000AF1420FFF79AFF0346FB7131
:10360C00FB7903F00303002B03D103211420FFF7F4
:10361C00B7FF00BF0837BD4680BD80B500AF0F2196
:10362C000120FFF75FFF00BF80BD80B586B002AF01
:10363C0003463960FB7107210D20FFF753FF3B68F0
:10364C00FA791A7007F10C0300933B680122396870
:10365C000C2000F00FF80346FB73FB7B002B02D110
:10366C00BB89102B01D00223FB73FB7B1846103750
:10367C00BD4680BD90B587B000AFB9607B60034696
:10368C00FB731346BB730223FB750023BB7500232E
:10369C007B75FB7B0C2B06D00E2B09D11223BB7533
:1036AC0010237B7505E07723BB7530237B7500E019
:1036BC0000BFBB7D63F07F03DBB219460220FFF72E
:1036CC0011FF80210420FFF775FF80210A20FFF7EE
:1036DC0057FF00210120FFF705FF00237B820AE042
:1036EC007B8ABA6813441B7819460920FFF7FAFE47
:1036FC007B8A01337B82BB7B9BB27A8A9A42EFD363
:10370C00FB7B19460120FFF7EDFEFB7B0C2B03D155
:10371C0080210D20FFF734FF4FF4FA637B820420E5
:10372C00FFF706FF03463B757B8A013B7B827B8A56
:10373C00002B0AD03B7D03F00103002B05D13A7D11
:10374C007B7D1340DBB2002BE9D080210D20FFF7ED
:10375C0031FF7B8A002B57D00620FFF7E9FE03468A
:10376C0003F01B03002B4DD10023FB753A7DBB7D71
:10377C001340DBB203F00103002B01D00123FB75D6
:10378C00FB7B0C2B40D10A20FFF7D2FE03463B7586
:10379C000C20FFF7CDFE034603F007037B747B7C04
:1037AC00002B0BD03B7D013B9BB2DB009AB27B7CA8
:1037BC009BB213449AB2BB6A1A8005E03B7D9BB264
:1037CC00DB009AB2BB6A1A803B7D002B01D101232E
:1037DC003B753B7D102B01D910233B7500237B825D
:1037EC000AE07B8A7A68D4180920FFF7A1FE034609
:1037FC0023707B8A01337B823B7D9BB27A8A9A420F
:10380C00EFD301E00223FB75FB7D18461C37BD4648
:10381C0090BD80B586B002AF786000237B73002129
:10382C000D20FFF75FFE7B6893221A707B680133D3
:10383C0020221A7007F10A0300937B680222796830
:10384C000C20FFF717FF0346FB73FB7B002B18D1F3
:10385C000023BB7309E0BB7B7A6813441A787B7B2B
:10386C0053407B73BB7B0133BB73BB7B032BF2D904
:10387C00BB7B7A6813441B787A7B9A4201D0022373
:10388C00FB73FB7B18461037BD4680BD90B587B0E7
:10389C0000AFF8600B467A60FB7204210520FFF73D
:1038AC0089FE80210A20FFF76BFE0023FB750AE0DE
:1038BC00FB7DFA6813441B7819460920FFF712FEAA
:1038CC00FB7D0133FB75FA7DFB7A9A42F0D3032121
:1038DC000120FFF707FEFF23FB750520FFF728FEED
:1038EC000346BB75FB7D013BFB75FB7D002B04D0B8
:1038FC00BB7D03F00403002BEFD02220FFF718FE52
:10390C0003461A467B681A707B685C1C2120FFF703
:10391C000FFE0346237000BF1C37BD4690BD80B51B
:10392C0084B002AF50233B7000237B703B469A1C43
:10393C003B4602211846FFF7A9FF3A463946BB1D04
:10394C000093134604220C20FFF794FE00BF0837A7
:10395C00BD4680BD80B485B000AF154B9B69144A41
:10396C0043F001039361124B9B6903F00103BB60AD
:10397C00BB680F4BDB690E4A43F08053D3610C4B91
:10398C00DB6903F080537B607B680A4B5B68FB60F0
:10399C00FB6823F0E063FB60FB6843F00073FB60A3
:1039AC00044AFB68536000BF1437BD4680BC7047A7
:1039BC00001002400000014080B588B000AF786074
:1039CC0007F1100300221A605A609A60DA607B6873
:1039DC001B68164A934224D1154B9B69144A43F039
:1039EC0008039361124B9B6903F00803FB60FB68AF
:1039FC004FF440633B6112237B610323FB6107F1AE
:103A0C00100319460B4800F0D5FC094BDB69084A3A
:103A1C0043F48003D361064BDB6903F48003BB6082
:103A2C00BB6800BF2037BD4680BD00BF00580040BA
:103A3C0000100240000C014080B588B000AF7860E7
:103A4C0007F1100300221A605A609A60DA607B68F2
:103A5C001B681B4A93422FD11A4B9B69194A43F49A
:103A6C0080539361174B9B6903F48053FB60FB6895
:103A7C00144B9B69134A43F004039361114B9B69EC
:103A8C0003F00403BB60BB68A0233B6102237B6192
:103A9C000323FB6107F1100319460B4800F08AFC65
:103AAC0040233B6100237B610023BB6107F11003C2
:103ABC001946054800F07EFC00BF2037BD4680BD8E
:103ACC0000300140001002400008014080B584B075
:103ADC0000AF78607B681B68B3F1804F13D10C4B3F
:103AEC00DB690B4A43F00103D361094BDB6903F03B
:103AFC000103FB60FB68002200211C2000F023FA6C
:103B0C001C2000F03CFA00BF1037BD4680BD00BF42
:103B1C000010024080B58AB000AF786007F1140342
:103B2C0000221A605A609A60DA607B681B68224A2D
:103B3C0093423DD1214B9B69204A43F480439361CE
:103B4C001E4B9B6903F480433B613B691B4B9B6998
:103B5C001A4A43F008039361184B9B6903F008035E
:103B6C00FB60FB6840237B610223BB6103233B6248
:103B7C0007F114031946124800F01CFC80237B61EA
:103B8C000023BB610023FB6107F1140319460C48A9
:103B9C0000F010FC0B4B5B687B627B6A43F0E063CC
:103BAC007B627B6A43F004037B62064A7B6A536048
:103BBC0000BF2837BD4680BD0038014000100240D0
:103BCC00000C01400000014080B400AF00BFFDE7D5
:103BDC0080B400AF00BFFDE780B400AF00BFFDE7CD
:103BEC0080B400AF00BFFDE780B400AF00BFFDE7BD
:103BFC0080B400AF00BFBD4680BC704780B400AF3E
:103C0C0000BFBD4680BC704780B400AF00BFBD464E
:103C1C0080BC704780B500AF00F07EF800BF80BD5F
:103C2C0080B500AF024802F063F900BF80BD00BF51
:103C3C005001002080B400AF00BFBD4680BC70476F
:103C4C000C480D490D4A002302E0D458C4500433EB
:103C5C00C4188C42F9D30A4A0A4C002301E01360C1
:103C6C000432A242FBD3FFF7E5FF02F059FEFCF74A
:103C7C00A1FC70470000002084000020BC6E0008EE
:103C8C008800002020020020FEE7000080B500AF75
:103C9C00084B1B68074A43F010031360032000F025
:103CAC0047F90F2000F008F8FFF754FE00231846E0
:103CBC0080BD00BF0020024080B582B000AF7860AC
:103CCC00124B1A68124B1B7819464FF47A73B3FBDC
:103CDC00F1F3B2FBF3F3184600F05FF90346002B47
:103CEC0001D001230EE07B680F2B0AD800227968E3
:103CFC004FF0FF3000F027F9064A7B681360002371
:103D0C0000E0012318460837BD4680BD780000202E
:103D1C00800000207C00002080B400AF054B1B7895
:103D2C001A46054B1B681344034A136000BFBD467B
:103D3C0080BC704780000020F801002080B400AFE8
:103D4C00024B1B681846BD4680BC7047F80100202A
:103D5C0080B584B000AF7860FFF7F0FFB8607B6887
:103D6C00FB60FB68B3F1FF3F05D00A4B1B781A468A
:103D7C00FB681344FB6000BFFFF7E0FF0246BB6823
:103D8C00D31AFA689A42F7D800BF00BF1037BD4665
:103D9C0080BD00BF8000002080B485B000AF78608B
:103DAC007B6803F00703FB600C4BDB68BB60BA68F5
:103DBC004FF6FF031340BB60FB681A02BB6813434A
:103DCC0043F0BF6343F40033BB60044ABB68D36069
:103DDC0000BF1437BD4680BC704700BF00ED00E04B
:103DEC0080B400AF044BDB681B0A03F007031846D2
:103DFC00BD4680BC704700BF00ED00E080B483B0CE
:103E0C0000AF0346FB7197F90730002B0BDBFB79F6
:103E1C0003F01F02064997F907305B09012000FAED
:103E2C0002F241F8232000BF0C37BD4680BC70471E
:103E3C0000E100E080B483B000AF03463960FB7151
:103E4C0097F90730002B0ADB3B68DAB20C4997F97B
:103E5C0007301201D2B20B4483F800230AE03B680E
:103E6C00DAB20849FB7903F00F03043B1201D2B21A
:103E7C000B441A7600BF0C37BD4680BC704700BFA0
:103E8C0000E100E000ED00E080B489B000AFF86024
:103E9C00B9607A60FB6803F00703FB61FB69C3F14F
:103EAC000703042B28BF0423BB61FB690433062BD7
:103EBC0002D9FB69033B00E000237B614FF0FF322A
:103ECC00BB6902FA03F3DA43BB681A407B699A4078
:103EDC004FF0FF317B6901FA03F3D9437B680B4048
:103EEC00134318462437BD4680BC704780B582B05A
:103EFC0000AF78607B68013BB3F1807F01D3012375
:103F0C000FE00A4A7B68013B53600F214FF0FF30F2
:103F1C00FFF790FF054B00229A60044B07221A60B2
:103F2C00002318460837BD4680BD00BF10E000E0F6
:103F3C0080B582B000AF78607868FFF72DFF00BFC6
:103F4C000837BD4680BD80B586B000AF0346B9606A
:103F5C007A60FB7300237B61FFF742FF78617A681C
:103F6C00B9687869FFF790FF024697F90F30114650
:103F7C001846FFF75FFF00BF1837BD4680BD80B500
:103F8C0082B000AF0346FB7197F907301846FFF774
:103F9C0035FF00BF0837BD4680BD80B582B000AF8D
:103FAC0078607868FFF7A2FF034618460837BD46CD
:103FBC0080BD0000F0B587B000AFF860B960C7E90C
:103FCC0000230123FB750023BB7500237B752F4B4E
:103FDC001B7E012B01D1022354E02C4B01221A76BB
:103FEC004CF2503000F0A8F80346FB75FB7D002B1B
:103FFC0044D1FB68012B02D101237B7507E0FB68E0
:10400C00022B02D102237B7501E004237B75002374
:10401C00BB752DE0BB7D5A00BB6802EB030CBB7D6E
:10402C001901D7E90023C1F12006A1F1200022FAE1
:10403C0001F403FA06F6344323FA00F0044323FA9E
:10404C0001F5A3B21946604600F05AF84CF2503014
:10405C0000F072F80346FB750D4B1B690C4A23F0FC
:10406C0001031361FB7D002B07D1BB7D0133BB75B5
:10407C00BA7D7B7D9A42CDD300E000BF034B00227A
:10408C001A76FB7D18461C37BD46F0BD0002002099
:10409C000020024080B483B000AF0023FB710D4BB5
:1040AC001B6903F08003002B0DD00A4B0A4A5A609F
:1040BC00084B0A4A5A60074B1B6903F08003002B1C
:1040CC0001D00123FB71FB7918460C37BD4680BC2F
:1040DC00704700BF0020024023016745AB89EFCD3C
:1040EC0080B400AF054B1B69044A43F08003136195
:1040FC0000231846BD4680BC704700BF002002401C
:10410C0080B483B000AF78600B467B80084B0022F4
:10411C00DA61084B1B69074A43F0010313617B68A2
:10412C007A881A8000BF0C37BD4680BC704700BF30
:10413C00000200200020024080B584B000AF7860FF
:10414C00FFF7FCFDF86010E07B68B3F1FF3F0CD08B
:10415C007B68002B07D0FFF7F1FD0246FB68D31AF2
:10416C007A689A4201D2032325E0154BDB6803F0F1
:10417C000103002BE8D1124BDB6803F02003002B6A
:10418C0002D00F4B2022DA600D4BDB6803F01003DA
:10419C00002B0BD10A4BDB6903F00103002B05D17B
:1041AC00074BDB6803F00403002B03D000F00AF884
:1041BC00012300E0002318461037BD4680BD00BF28
:1041CC000020024080B483B000AF00237B60234BFF
:1041DC00DB6803F01003002B09D0214BDB6943F0A3
:1041EC0002031F4AD3617B6843F010037B601B4BB7
:1041FC00DB6803F00403002B09D0194BDB6943F097
:10420C000103174AD3617B6843F004037B60134BB3
:10421C00DB6903F00103002B0BD0114BDB6943F07E
:10422C0004030F4AD3610D4BDB690C4A23F00103E5
:10423C00D3617B6840F20112934206D1074BDB69D4
:10424C00064A23F00103D36102E0044A7B68D36081
:10425C0000BF0C37BD4680BC704700BF0020024039
:10426C000002002080B584B000AF78603960012373
:10427C00FB730023BB602F4B1B7E012B01D1022350
:10428C0053E02C4B01221A767B681B68022B16D14B
:10429C004CF25030FFF750FF0346002B41D1012068
:1042AC0000F04CF84CF25030FFF746FF0346FB731E
:1042BC00214B1B69204A23F00403136131E04CF2BB
:1042CC005030FFF739FF0346002B2AD13B684FF0E3
:1042DC00FF321A607B689B68BB6019E0B86800F01D
:1042EC0049F84CF25030FFF727FF0346FB73124B93
:1042FC001B69114A23F002031361FB7B002B03D0D3
:10430C003B68BA681A600CE0BB6803F58063BB605D
:10431C007B68DB689A027B689B681344BA689A4294
:10432C00DCD3044B00221A76FB7B18461037BD46B3
:10433C0080BD00BF000200200020024080B483B08A
:10434C0000AF7860094B0022DA61094B1B69084AFF
:10435C0043F004031361064B1B69054A43F0400309
:10436C00136100BF0C37BD4680BC704700020020B3
:10437C000020024080B483B000AF78600B4B002269
:10438C00DA610B4B1B690A4A43F002031361084ABA
:10439C007B685361064B1B69054A43F0400313616C
:1043AC0000BF0C37BD4680BC704700BF0002002028
:1043BC000020024080B48BB000AF786039600023DD
:1043CC007B6200233B6269E101227B6A02FA03F300
:1043DC00FB613B681B68FA691340BB61BA69FB69F6
:1043EC009A4240F058813B685B689A4A93425ED08F
:1043FC00984A934275D8984A934258D0964A934219
:10440C006FD8964A934252D0944A934269D8944AB0
:10441C0093424CD0924A934263D8924A934246D0EC
:10442C00904A93425DD8122B2AD8122B59D801A24C
:10443C0052F823F0BB44000895440008A744000838
:10444C00E9440008EF440008EF440008EF4400087A
:10445C00EF440008EF440008EF440008EF44000864
:10446C00EF440008EF440008EF440008EF44000854
:10447C00EF440008EF4400089D440008B1440008D4
:10448C00794A934213D02CE03B68DB683B6229E00D
:10449C003B68DB6804333B6224E03B68DB68083331
:1044AC003B621FE03B68DB680C333B621AE03B6805
:1044BC009B68002B02D104233B6213E03B689B6892
:1044CC00012B05D108233B627B68FA691A6109E06C
:1044DC0008233B627B68FA695A6103E000233B6264
:1044EC0000E000BFBB69FF2B01D87B6801E07B6853
:1044FC0004337B61BB69FF2B02D87B6A9B0002E013
:10450C007B6A083B9B003B617B691A680F213B6906
:10451C0001FA03F3DB431A40396A3B6901FA03F3EE
:10452C001A437B691A603B685B6803F08053002B6D
:10453C0000F0B1804D4B9B694C4A43F001039361F1
:10454C004A4B9B6903F00103BB60BB68484A7B6A1A
:10455C009B08023352F82330FB607B6A03F00303A1
:10456C009B000F2202FA03F3DB43FA681340FB6053
:10457C007B68404A934213D07B683F4A93420DD0EC
:10458C007B683E4A934207D07B683D4A934201D1F7
:10459C00032306E0042304E0022302E0012300E0ED
:1045AC0000237A6A02F0030292009340FA681343E4
:1045BC00FB602F497B6A9B080233FA6841F8232081
:1045CC003B685B6803F48033002B06D02D4B1A68D4
:1045DC002C49BB6913430B6006E02A4B1A68BB6974
:1045EC00DB43284913400B603B685B6803F40033E2
:1045FC00002B06D0234B5A682249BB6913434B60EE
:10460C0006E0204B5A68BB69DB431E4913404B60E4
:10461C003B685B6803F48013002B06D0194B9A6837
:10462C001849BB6913438B6006E0164B9A68BB694B
:10463C00DB43144913408B603B685B6803F4001345
:10464C00002B21D00F4BDA680E49BB691343CB60AA
:10465C0021E000BF000032100000311000002210D9
:10466C000000211000001210000011100010024078
:10467C000000014000080140000C01400010014006
:10468C0000140140000401400B4BDA68BB69DB43AA
:10469C0009491340CB607B6A01337B623B681A6823
:1046AC007B6A22FA03F3002B7FF48EAE00BF00BFAF
:1046BC002C37BD4680BC70470004014080B485B0E7
:1046CC0000AF78600B467B807B689A687B881340D0
:1046DC00002B02D00123FB7301E00023FB73FB7B57
:1046EC0018461437BD4680BC704780B483B000AF09
:1046FC0078600B467B8013467B707B78002B03D055
:10470C007A887B681A6103E07B881A047B681A61DB
:10471C0000BF0C37BD4680BC704780B485B000AF7D
:10472C0078600B467B807B68DB68FB607A88FB6873
:10473C0013401A04FB68D9437B880B401A437B68EF
:10474C001A6100BF1437BD4680BC704780B584B079
:10475C0000AF78607B68002B01D101232BE17B68D3
:10476C0093F83D30DBB2002B06D17B68002283F836
:10477C003C207868FFF720F97B68242283F83D20E1
:10478C007B681B681A687B681B6822F001021A6040
:10479C007B681B681A687B681B6842F400421A60CD
:1047AC007B681B681A687B681B6822F400421A60DD
:1047BC0000F0EAFFF8607B685B68814A934207D897
:1047CC00FB68804A934294BF01230023DBB206E0CE
:1047DC00FB687D4A934294BF01230023DBB2002B7C
:1047EC0001D00123E7E0FB68784AA2FB03239B0C72
:1047FC00BB607B681B685B6823F03F017B681B68B0
:10480C00BA680A435A607B681B681B6A23F03F0135
:10481C007B685B686A4A934202D8BB68013309E043
:10482C00BB684FF4967202FB03F3694AA2FB0323A5
:10483C009B0901337A6812680B4313627B681B680F
:10484C00DB6923F44F4222F0FF027B685B685C4912
:10485C008B4219D8FB68591E7B685B685B00B1FB07
:10486C00F3F3591C40F6FC730B40002B0AD0FB6889
:10487C00591E7B685B685B00B1FBF3F30133C3F338
:10488C000B0351E004234FE07B689B68002B11D194
:10489C00FB68581E7B6859680B465B000B44B0FBE9
:1048AC00F3F30133C3F30B03002B0CBF01230023E1
:1048BC00DBB212E0FB68581E7B6859680B469B0004
:1048CC000B4499000B44B0FBF3F30133C3F30B031C
:1048DC00002B0CBF01230023DBB2002B01D00123E2
:1048EC0022E07B689B68002B0ED1FB68581E7B680E
:1048FC0059680B465B000B44B0FBF3F30133C3F375
:10490C000B0343F400430FE0FB68581E7B685968A7
:10491C000B469B000B4499000B44B0FBF3F30133A3
:10492C00C3F30B0343F44043796809681343CB6129
:10493C007B681B681B6823F0C0017B68DA697B68A5
:10494C001B6A1A437B681B680A431A607B681B68E6
:10495C009B6823F4034323F0FF037A6811697A6898
:10496C00D26811437A6812680B4393607B681B68AA
:10497C00DB6823F0FF017B685A697B689B691A43EB
:10498C007B681B680A43DA607B681B681A687B6863
:10499C001B6842F001021A607B6800221A647B6873
:1049AC00202283F83D207B6800221A637B6800225A
:1049BC0083F83E20002318461037BD4680BD00BF4B
:1049CC00A08601007F841E00FF083D0083DE1B4390
:1049DC00D34D621080B588B002AFF8607A601A4689
:1049EC000B467B8113463B81FFF7A8F97861FB6886
:1049FC0093F83D30DBB2202B40F0E0807B690093D4
:104A0C00192301227049F86800F064F90346002B61
:104A1C0001D00223D3E0FB6893F83C30012B01D189
:104A2C000223CCE0FB68012283F83C20FB681B6866
:104A3C001B6803F00103012B07D0FB681B681A6885
:104A4C00FB681B6842F001021A60FB681B681A685D
:104A5C00FB681B6822F400621A60FB68212283F851
:104A6C003D20FB68102283F83E20FB6800221A646C
:104A7C00FB687A685A62FB683A895A85FB685B8DD9
:104A8C009AB2FB681A85FB68504ADA6279897B69AD
:104A9C003A6AF86800F09CF80346002B01D0012319
:104AAC008DE000233B61FB681B685B693B61FB6825
:104ABC001B689B693B613B6966E07A69396AF868F7
:104ACC0000F0DEF90346002B0DD0FB681B6C042BA9
:104ADC0007D1FB681B681A68FB681B6842F40072FC
:104AEC001A6001236BE0FB685B6A1A78FB681B6831
:104AFC001A61FB685B6A5A1CFB685A62FB685B8D27
:104B0C009BB2013B9AB2FB685A85FB681B8D013B3B
:104B1C009AB2FB681A85FB681B685B6903F0040397
:104B2C00042B1BD1FB681B8D002B17D0FB685B6A19
:104B3C001A78FB681B681A61FB685B6A5A1CFB6875
:104B4C005A62FB685B8D9BB2013B9AB2FB685A853B
:104B5C00FB681B8D013B9AB2FB681A857A69396A2E
:104B6C00F86800F0CEF90346002B0DD0FB681B6CE7
:104B7C00042B07D1FB681B681A68FB681B6842F49E
:104B8C0000721A6001231AE0FB681B8D002B94D174
:104B9C00FB681B681A68FB681B6842F400721A6099
:104BAC00FB68202283F83D20FB68002283F83E201E
:104BBC00FB68002283F83C20002300E00223184607
:104BCC001837BD4680BD00BF020010000000FFFF7B
:104BDC0080B588B002AFF8607A603B600B467B8191
:104BEC00FB68DB6A7B617B69082B06D07B69012B38
:104BFC0003D07B6913F5803F08D1FB681B681A68EA
:104C0C00FB681B6842F480721A600BE0FB681B6B3C
:104C1C00122B07D1FB681B681A68FB681B6842F4EF
:104C2C0080721A603B6800937B6800224FF0011180
:104C3C00F86800F04FF80346002B0DD0FB681B689A
:104C4C001B6803F48073B3F5807F03D1FB684FF4CA
:104C5C0000721A64032335E0FB681B69B3F5804FBF
:104C6C0008D17B89DBB21A46FB681B6802F0FE0296
:104C7C001A611BE07B89DB11DBB203F00603DBB2AC
:104C8C0063F00F03DAB2FB681B681A613B687A6841
:104C9C000E49F86800F075F80346002B01D001238B
:104CAC0010E07B89DAB2FB681B681A613B687A6892
:104CBC000749F86800F065F80346002B01D0012382
:104CCC0000E0002318461837BD4680BD08000100DF
:104CDC000200010080B584B000AFF860B9603B60A1
:104CEC001346FB7125E03B68B3F1FF3F21D0FFF782
:104CFC0025F80246BB69D31A3A689A4202D33B683C
:104D0C00002B16D1FB6800221A63FB68202283F863
:104D1C003D20FB68002283F83E20FB681B6C43F0AF
:104D2C002002FB681A64FB68002283F83C200123F4
:104D3C0023E0BB681B0CDBB2012B0DD1FB681B689D
:104D4C005B69DA43BB6813409BB2002B0CBF012399
:104D5C000023DBB21A460CE0FB681B689B69DA4344
:104D6C00BB6813409BB2002B0CBF01230023DBB2AA
:104D7C001A46FB799A42B6D0002318461037BD4626
:104D8C0080BD80B584B000AFF860B9607A603B60DC
:104D9C0051E0FB681B685B6903F48063B3F5806FBB
:104DAC0023D1FB681B681A68FB681B6842F400720D
:104DBC001A60FB681B686FF480625A61FB68002202
:104DCC001A63FB68202283F83D20FB68002283F8DD
:104DDC003E20FB681B6C43F00402FB681A64FB6802
:104DEC00002283F83C20012346E07B68B3F1FF3FAF
:104DFC0021D0FEF7A3FF02463B68D31A7A689A4289
:104E0C0002D37B68002B16D1FB6800221A63FB6867
:104E1C00202283F83D20FB68002283F83E20FB68AB
:104E2C001B6C43F02002FB681A64FB68002283F8B9
:104E3C003C20012320E0BB681B0CDBB2012B0CD106
:104E4C00FB681B685B69DA43BB6813409BB2002BA1
:104E5C0014BF01230023DBB20BE0FB681B689B69CA
:104E6C00DA43BB6813409BB2002B14BF0123002311
:104E7C00DBB2002B8DD1002318461037BD4680BD08
:104E8C0080B584B000AFF860B9607A602DE0F86846
:104E9C0000F078F80346002B01D001232DE0BB680D
:104EAC00B3F1FF3F21D0FEF749FF02467B68D31ACE
:104EBC00BA689A4202D3BB68002B16D1FB68002259
:104ECC001A63FB68202283F83D20FB68002283F8DC
:104EDC003E20FB681B6C43F02002FB681A64FB68E5
:104EEC00002283F83C20012307E0FB681B685B6908
:104EFC0003F08003802BCAD1002318461037BD461F
:104F0C0080BD80B584B000AFF860B9607A602DE0E8
:104F1C00F86800F037F80346002B01D001232DE090
:104F2C00BB68B3F1FF3F21D0FEF708FF02467B6858
:104F3C00D31ABA689A4202D3BB68002B16D1FB680D
:104F4C0000221A63FB68202283F83D20FB680022B4
:104F5C0083F83E20FB681B6C43F02002FB681A644C
:104F6C00FB68002283F83C20012307E0FB681B68E8
:104F7C005B6903F00403042BCAD1002318461037D5
:104F8C00BD4680BD80B483B000AF78607B681B6881
:104F9C005B6903F48063B3F5806F1BD17B681B687E
:104FAC006FF480625A617B6800221A637B6820224E
:104FBC0083F83D207B68002283F83E207B681B6CC5
:104FCC0043F004027B681A647B68002283F83C205F
:104FDC00012300E0002318460C37BD4680BC704707
:104FEC0080B586B000AF78607B68002B01D10123BF
:104FFC0072E27B681B6803F00103002B00F08780D2
:10500C00924B5B6803F00C03042B0CD08F4B5B684A
:10501C0003F00C03082B12D18C4B5B6803F4803328
:10502C00B3F5803F0BD1894B1B6803F40033002B85
:10503C006CD07B685B68002B68D101234CE27B68E9
:10504C005B68B3F5803F06D1804B1B687F4A43F405
:10505C00803313602EE07B685B68002B0CD17B4B9C
:10506C001B687A4A23F480331360784B1B68774AA9
:10507C0023F4802313601DE07B685B68B3F5A02FDD
:10508C000CD1724B1B68714A43F4802313606F4B35
:10509C001B686E4A43F4803313600BE06B4B1B6848
:1050AC006A4A23F480331360684B1B68674A23F405
:1050BC00802313607B685B68002B13D0FEF73EFEE9
:1050CC00386108E0FEF73AFE02463B69D31A642BBE
:1050DC0001D9032300E25D4B1B6803F40033002B62
:1050EC00F0D014E0FEF72AFE386108E0FEF726FE49
:1050FC0002463B69D31A642B01D90323ECE1534BD1
:10510C001B6803F40033002BF0D100E000BF7B6878
:10511C001B6803F00203002B63D04C4B5B6803F05D
:10512C000C03002B0BD0494B5B6803F00C03082BD2
:10513C001CD1464B5B6803F48033002B16D1434BD8
:10514C001B6803F00203002B05D07B681B69012B45
:10515C0001D00123C0E13D4B1B6823F0F8027B68B2
:10516C005B69DB00394913430B603AE07B681B69D0
:10517C00002B20D0364B01221A60FEF7DFFD386180
:10518C0008E0FEF7DBFD02463B69D31A022B01D97E
:10519C000323A1E12D4B1B6803F00203002BF0D07D
:1051AC002A4B1B6823F0F8027B685B69DB002749FC
:1051BC0013430B6015E0264B00221A60FEF7BEFD70
:1051CC00386108E0FEF7BAFD02463B69D31A022BA0
:1051DC0001D9032380E11D4B1B6803F00203002B54
:1051EC00F0D17B681B6803F00803002B3AD07B6876
:1051FC009B69002B19D0174B01221A60FEF79EFDFC
:10520C00386108E0FEF79AFD02463B69D31A022B7F
:10521C0001D9032360E10D4B5B6A03F00203002B01
:10522C00F0D0012000F0D8FA1CE00A4B00221A60E2
:10523C00FEF784FD38610FE0FEF780FD02463B6906
:10524C00D31A022B08D9032346E100BF00100240F9
:10525C000000424280044242924B5B6A03F002031C
:10526C00002BE9D17B681B6803F00403002B00F0D2
:10527C00A6800023FB758B4BDB6903F08053002B5E
:10528C000DD1884BDB69874A43F08053D361854B42
:10529C00DB6903F08053BB60BB680123FB75824B59
:1052AC001B6803F48073002B18D17F4B1B687E4A5C
:1052BC0043F480731360FEF741FD386108E0FEF79C
:1052CC003DFD02463B69D31A642B01D9032303E14C
:1052DC00754B1B6803F48073002BF0D07B68DB6884
:1052EC00012B06D16F4B1B6A6E4A43F0010313620C
:1052FC002DE07B68DB68002B0CD16A4B1B6A694A7A
:10530C0023F001031362674B1B6A664A23F0040304
:10531C0013621CE07B68DB68052B0CD1614B1B6AAC
:10532C00604A43F0040313625E4B1B6A5D4A43F010
:10533C00010313620BE05B4B1B6A5A4A23F0010317
:10534C001362584B1B6A574A23F0040313627B68A1
:10535C00DB68002B15D0FEF7F1FC38610AE0FEF794
:10536C00EDFC02463B69D31A41F28832934201D9D3
:10537C000323B1E04B4B1B6A03F00203002BEED06E
:10538C0014E0FEF7DBFC38610AE0FEF7D7FC0246BE
:10539C003B69D31A41F28832934201D903239BE033
:1053AC00404B1B6A03F00203002BEED1FB7D012B5B
:1053BC0005D13C4BDB693B4A23F08053D3617B68BE
:1053CC00DB69002B00F08780364B5B6803F00C0325
:1053DC00082B61D07B68DB69022B46D1334B002252
:1053EC001A60FEF7ABFC386108E0FEF7A7FC02463A
:1053FC003B69D31A022B01D903236DE0294B1B689F
:10540C0003F00073002BF0D17B681B6AB3F5803F6F
:10541C0008D1244B5B6823F400327B689B682149DC
:10542C0013434B601F4B5B6823F474127B68196A3F
:10543C007B685B6A0B431B4913434B601B4B01227C
:10544C001A60FEF77BFC386108E0FEF777FC024639
:10545C003B69D31A022B01D903233DE0114B1B6886
:10546C0003F00073002BF0D035E0104B00221A60D3
:10547C00FEF764FC386108E0FEF760FC02463B690D
:10548C00D31A022B01D9032326E0064B1B6803F029
:10549C000073002BF0D11EE07B68DB69012B07D178
:1054AC00012319E0001002400070004060004242ED
:1054BC000B4B5B68FB60FB6803F480327B681B6AF8
:1054CC009A4206D1FB6803F470127B685B6A9A42BD
:1054DC0001D0012300E0002318461837BD4680BDDB
:1054EC000010024080B584B000AF786039607B68F2
:1054FC00002B01D10123D0E06A4B1B6803F007039A
:10550C003A689A4210D9674B1B6823F00702654929
:10551C003B6813430B60634B1B6803F007033A684B
:10552C009A4201D00123B8E07B681B6803F00203A8
:10553C00002B20D07B681B6803F00403002B05D0E4
:10554C00594B5B68584A43F4E06353607B681B68B3
:10555C0003F00803002B05D0534B5B68524A43F40D
:10556C0060535360504B5B6823F0F0027B689B6880
:10557C004D4913434B607B681B6803F00103002B00
:10558C0040D07B685B68012B07D1474B1B6803F449
:10559C000033002B15D101237FE07B685B68022B65
:1055AC0007D1414B1B6803F00073002B09D1012379
:1055BC0073E03D4B1B6803F00203002B01D1012368
:1055CC006BE0394B5B6823F003027B685B68364900
:1055DC0013434B60FEF7B2FBF8600AE0FEF7AEFB3C
:1055EC000246FB68D31A41F28832934201D9032355
:1055FC0053E02D4B5B6803F00C027B685B689B00EF
:10560C009A42EBD1274B1B6803F007033A689A4286
:10561C0010D2244B1B6823F0070222493B6813432A
:10562C000B60204B1B6803F007033A689A4201D0C9
:10563C00012332E07B681B6803F00403002B08D0C5
:10564C00194B5B6823F4E0627B68DB6816491343F3
:10565C004B607B681B6803F00803002B09D0124BCE
:10566C005B6823F460527B681B69DB000E491343B3
:10567C004B6000F021F802460B4B5B681B0903F0F2
:10568C000F030A49CB5C22FA03F3094A1360094B56
:10569C001B681846FEF710FB002318461037BD4652
:1056AC0080BD00BF00200240001002409C6E00082C
:1056BC00780000207C00002090B48AB000AF294B09
:1056CC003C1D0FCB84E80F0040F201233B800023EC
:1056DC00FB610023BB6100237B6200237B61002301
:1056EC003B62214B5B68FB61FB6903F00C03042BF1
:1056FC0002D0082B03D02BE01C4B3B622BE0FB6948
:10570C009B0C03F00F0328333B4413F8243C7B61C0
:10571C00FB6903F48033002B12D0134B5B685B0CDA
:10572C0003F0010328333B4413F8283CBB617B692D
:10573C000E4A03FB02F2BB69B2FBF3F37B6204E09B
:10574C007B690B4A02FB03F37B627B6A3B6202E0E0
:10575C00064B3B6200BF3B6A18462837BD4690BCDF
:10576C00704700BF8C6E00080010024000127A00D7
:10577C0000093D0080B400AF024B1B681846BD46C3
:10578C0080BC70477800002080B500AFFFF7F2FFB7
:10579C000246054B5B681B0A03F007030349CB5C0D
:1057AC0022FA03F3184680BD00100240AC6E0008CC
:1057BC0080B500AFFFF7DEFF0246054B5B68DB0AE6
:1057CC0003F007030349CB5C22FA03F3184680BDB0
:1057DC0000100240AC6E000880B485B000AF786059
:1057EC000A4B1B680A4AA2FB03235B0A7A6802FB7A
:1057FC0003F3FB6000BFFB685A1EFA60002BF9D163
:10580C0000BF00BF1437BD4680BC70477800002035
:10581C00D34D621080B582B000AF78607B68002BEE
:10582C0001D1012376E07B685B6A002B08D17B6891
:10583C005B68B3F5827F09D07B680022DA6105E0F2
:10584C007B6800221A617B6800225A617B68002207
:10585C009A627B6893F85130DBB2002B06D17B68DF
:10586C00002283F850207868FEF7E6F87B68022265
:10587C0083F851207B681B681A687B681B6822F0D0
:10588C0040021A607B685B6803F482727B689B68D9
:10589C0003F404431A437B68DB6803F400631A4384
:1058AC007B681B6903F002031A437B685B6903F096
:1058BC0001031A437B689B6903F400731A437B68EA
:1058CC00DB6903F038031A437B681B6A03F080031F
:1058DC0042EA03017B689B6A03F400527B681B68F5
:1058EC000A431A607B689B691A0C7B681B6802F080
:1058FC0004025A607B681B68DA697B681B6822F4B7
:10590C000062DA617B6800225A657B68012283F8A9
:10591C005120002318460837BD4680BD80B58CB099
:10592C0000AFF860B9607A607B800123FB620023D2
:10593C0087F82B30FB6893F85030012B01D10223F0
:10594C008AE1FB68012283F85020FEF7F7F97862B0
:10595C00FB6893F8513087F82330FB685B68FB6178
:10596C007B887B8397F82330012B0FD0FB69B3F531
:10597C00827F07D1FB689B68002B03D197F82330FB
:10598C00042B03D0022387F82B305BE1BB68002B80
:10599C0005D07B68002B02D07B88002B03D1012320
:1059AC0087F82B304EE1FB6893F85130DBB2042BB7
:1059BC0003D0FB68052283F85120FB6800225A654E
:1059CC00FB687A689A63FB687A88DA87FB687A885E
:1059DC009A87FB68BA681A63FB687A88DA86FB6870
:1059EC007A889A86FB6800221A64FB6800225A6443
:1059FC00FB681B681B6803F04003402B07D0FB6857
:105A0C001B681A68FB681B6842F040021A60FB684E
:105A1C00DB68B3F5006F78D1FB685B68002B02D0B4
:105A2C007B8B012B66D1FB681B6B1A88FB681B6890
:105A3C00DA60FB681B6B9A1CFB681A63FB68DB8ED5
:105A4C009BB2013B9AB2FB68DA8653E0FB681B6899
:105A5C009B6803F00203022B1BD1FB68DB8E9BB20D
:105A6C00002B16D0FB6A012B13D1FB681B6B1A8819
:105A7C00FB681B68DA60FB681B6B9A1CFB681A637B
:105A8C00FB68DB8E9BB2013B9AB2FB68DA86002383
:105A9C00FB62FB681B689B6803F00103012B19D1A7
:105AAC00FB68DB8F9BB2002B14D0FB681B68DA6899
:105ABC00FB689B6B92B21A80FB689B6B9A1CFB6811
:105ACC009A63FB68DB8F9BB2013B9AB2FB68DA8767
